{"abi":[{"type":"constructor","inputs":[{"name":"_platformAddress","type":"address","internalType":"address"},{"name":"_platformFeePercent","type":"uint256","internalType":"uint256"},{"name":"_maxAuctionDuration","type":"uint256","internalType":"uint256"},{"name":"_userVerfierAddress","type":"address","internalType":"address"}],"stateMutability":"nonpayable"},{"type":"function","name":"BASIS_POINTS","inputs":[],"outputs":[{"name":"","type":"uint256","internalType":"uint256"}],"stateMutability":"view"},{"type":"function","name":"ESCROW_RELEASE_DELAY","inputs":[],"outputs":[{"name":"","type":"uint256","internalType":"uint256"}],"stateMutability":"view"},{"type":"function","name":"I_USER_VERFIER_ADDRESS","inputs":[],"outputs":[{"name":"","type":"address","internalType":"address"}],"stateMutability":"view"},{"type":"function","name":"MAX_AUCTION_DURATION","inputs":[],"outputs":[{"name":"","type":"uint256","internalType":"uint256"}],"stateMutability":"view"},{"type":"function","name":"MAX_AUCTION_EXTENSIONS","inputs":[],"outputs":[{"name":"","type":"uint256","internalType":"uint256"}],"stateMutability":"view"},{"type":"function","name":"MAX_PLATFORM_FEE","inputs":[],"outputs":[{"name":"","type":"uint256","internalType":"uint256"}],"stateMutability":"view"},{"type":"function","name":"MIN_AUCTION_DURATION","inputs":[],"outputs":[{"name":"","type":"uint256","internalType":"uint256"}],"stateMutability":"view"},{"type":"function","name":"PLATFORM_ADDRESS","inputs":[],"outputs":[{"name":"","type":"address","internalType":"address"}],"stateMutability":"view"},{"type":"function","name":"PRICE_INCREASE_LIMIT","inputs":[],"outputs":[{"name":"","type":"uint256","internalType":"uint256"}],"stateMutability":"view"},{"type":"function","name":"RESALE_COOLDOWN","inputs":[],"outputs":[{"name":"","type":"uint256","internalType":"uint256"}],"stateMutability":"view"},{"type":"function","name":"auctions","inputs":[{"name":"","type":"bytes32","internalType":"bytes32"}],"outputs":[{"name":"startTime","type":"uint256","internalType":"uint256"},{"name":"endTime","type":"uint256","internalType":"uint256"},{"name":"reservePrice","type":"uint256","internalType":"uint256"},{"name":"minBidIncrement","type":"uint256","internalType":"uint256"},{"name":"highestBidder","type":"address","internalType":"address"},{"name":"highestBid","type":"uint256","internalType":"uint256"},{"name":"status","type":"uint8","internalType":"enum TicketMarketplace.AuctionStatus"},{"name":"extensionCount","type":"uint256","internalType":"uint256"}],"stateMutability":"view"},{"type":"function","name":"buyItem","inputs":[{"name":"tokenContract","type":"address","internalType":"address"},{"name":"tokenId","type":"uint256","internalType":"uint256"}],"outputs":[],"stateMutability":"payable"},{"type":"function","name":"cancelListing","inputs":[{"name":"tokenContract","type":"address","internalType":"address"},{"name":"tokenId","type":"uint256","internalType":"uint256"}],"outputs":[],"stateMutability":"nonpayable"},{"type":"function","name":"config","inputs":[],"outputs":[{"name":"platformFeePercent","type":"uint256","internalType":"uint256"},{"name":"maxAuctionDuration","type":"uint256","internalType":"uint256"}],"stateMutability":"view"},{"type":"function","name":"createAuction","inputs":[{"name":"tokenContract","type":"address","internalType":"address"},{"name":"tokenId","type":"uint256","internalType":"uint256"},{"name":"startingPrice","type":"uint256","internalType":"uint256"},{"name":"reservePrice","type":"uint256","internalType":"uint256"},{"name":"duration","type":"uint256","internalType":"uint256"},{"name":"minBidIncrement","type":"uint256","internalType":"uint256"}],"outputs":[],"stateMutability":"nonpayable"},{"type":"function","name":"dailyVolume","inputs":[{"name":"","type":"uint256","internalType":"uint256"}],"outputs":[{"name":"","type":"uint256","internalType":"uint256"}],"stateMutability":"view"},{"type":"function","name":"emergencyReleaseEscrow","inputs":[{"name":"listingId","type":"bytes32","internalType":"bytes32"}],"outputs":[],"stateMutability":"nonpayable"},{"type":"function","name":"emergencyReleaseFunds","inputs":[{"name":"tokenContract","type":"address","internalType":"address"},{"name":"tokenId","type":"uint256","internalType":"uint256"}],"outputs":[],"stateMutability":"nonpayable"},{"type":"function","name":"emergencyWithdraw","inputs":[],"outputs":[],"stateMutability":"nonpayable"},{"type":"function","name":"escrowedFunds","inputs":[{"name":"","type":"bytes32","internalType":"bytes32"}],"outputs":[{"name":"amount","type":"uint256","internalType":"uint256"},{"name":"seller","type":"address","internalType":"address"},{"name":"buyer","type":"address","internalType":"address"},{"name":"released","type":"bool","internalType":"bool"},{"name":"eventStartTime","type":"uint256","internalType":"uint256"}],"stateMutability":"view"},{"type":"function","name":"getAuctionBidders","inputs":[{"name":"listingId","type":"bytes32","internalType":"bytes32"}],"outputs":[{"name":"","type":"address[]","internalType":"address[]"}],"stateMutability":"view"},{"type":"function","name":"getAuctionInfo","inputs":[{"name":"tokenContract","type":"address","internalType":"address"},{"name":"tokenId","type":"uint256","internalType":"uint256"}],"outputs":[{"name":"startTime","type":"uint256","internalType":"uint256"},{"name":"endTime","type":"uint256","internalType":"uint256"},{"name":"reservePrice","type":"uint256","internalType":"uint256"},{"name":"highestBidder","type":"address","internalType":"address"},{"name":"highestBid","type":"uint256","internalType":"uint256"},{"name":"status","type":"uint8","internalType":"enum TicketMarketplace.AuctionStatus"},{"name":"extensionCount","type":"uint256","internalType":"uint256"}],"stateMutability":"view"},{"type":"function","name":"getBidInfo","inputs":[{"name":"listingId","type":"bytes32","internalType":"bytes32"},{"name":"bidder","type":"address","internalType":"address"}],"outputs":[{"name":"","type":"uint256","internalType":"uint256"}],"stateMutability":"view"},{"type":"function","name":"getEscrowInfo","inputs":[{"name":"listingId","type":"bytes32","internalType":"bytes32"}],"outputs":[{"name":"","type":"tuple","internalType":"struct TicketMarketplace.EscrowInfo","components":[{"name":"amount","type":"uint256","internalType":"uint256"},{"name":"seller","type":"address","internalType":"address"},{"name":"buyer","type":"address","internalType":"address"},{"name":"released","type":"bool","internalType":"bool"},{"name":"eventStartTime","type":"uint256","internalType":"uint256"}]}],"stateMutability":"view"},{"type":"function","name":"getLastSaleInfo","inputs":[{"name":"listingId","type":"bytes32","internalType":"bytes32"}],"outputs":[{"name":"price","type":"uint256","internalType":"uint256"},{"name":"time","type":"uint256","internalType":"uint256"}],"stateMutability":"view"},{"type":"function","name":"getListingId","inputs":[{"name":"tokenContract","type":"address","internalType":"address"},{"name":"tokenId","type":"uint256","internalType":"uint256"}],"outputs":[{"name":"","type":"bytes32","internalType":"bytes32"}],"stateMutability":"pure"},{"type":"function","name":"getTodaysVolume","inputs":[],"outputs":[{"name":"","type":"uint256","internalType":"uint256"}],"stateMutability":"view"},{"type":"function","name":"lastSalePrice","inputs":[{"name":"","type":"bytes32","internalType":"bytes32"}],"outputs":[{"name":"","type":"uint256","internalType":"uint256"}],"stateMutability":"view"},{"type":"function","name":"lastSaleTime","inputs":[{"name":"","type":"bytes32","internalType":"bytes32"}],"outputs":[{"name":"","type":"uint256","internalType":"uint256"}],"stateMutability":"view"},{"type":"function","name":"listItemFixedPrice","inputs":[{"name":"tokenContract","type":"address","internalType":"address"},{"name":"tokenId","type":"uint256","internalType":"uint256"},{"name":"price","type":"uint256","internalType":"uint256"}],"outputs":[],"stateMutability":"nonpayable"},{"type":"function","name":"listings","inputs":[{"name":"","type":"bytes32","internalType":"bytes32"}],"outputs":[{"name":"seller","type":"address","internalType":"address"},{"name":"tokenContract","type":"address","internalType":"address"},{"name":"tokenId","type":"uint256","internalType":"uint256"},{"name":"price","type":"uint256","internalType":"uint256"},{"name":"saleType","type":"uint8","internalType":"enum TicketMarketplace.SaleType"},{"name":"active","type":"bool","internalType":"bool"},{"name":"listedAt","type":"uint256","internalType":"uint256"}],"stateMutability":"view"},{"type":"function","name":"owner","inputs":[],"outputs":[{"name":"","type":"address","internalType":"address"}],"stateMutability":"view"},{"type":"function","name":"paused","inputs":[],"outputs":[{"name":"","type":"bool","internalType":"bool"}],"stateMutability":"view"},{"type":"function","name":"placeBid","inputs":[{"name":"tokenContract","type":"address","internalType":"address"},{"name":"tokenId","type":"uint256","internalType":"uint256"}],"outputs":[],"stateMutability":"payable"},{"type":"function","name":"releaseEscrowedFunds","inputs":[{"name":"listingId","type":"bytes32","internalType":"bytes32"}],"outputs":[],"stateMutability":"nonpayable"},{"type":"function","name":"renounceOwnership","inputs":[],"outputs":[],"stateMutability":"nonpayable"},{"type":"function","name":"setPaused","inputs":[{"name":"_paused","type":"bool","internalType":"bool"}],"outputs":[],"stateMutability":"nonpayable"},{"type":"function","name":"settleAuction","inputs":[{"name":"tokenContract","type":"address","internalType":"address"},{"name":"tokenId","type":"uint256","internalType":"uint256"}],"outputs":[],"stateMutability":"nonpayable"},{"type":"function","name":"tokenContractVolume","inputs":[{"name":"","type":"address","internalType":"address"}],"outputs":[{"name":"","type":"uint256","internalType":"uint256"}],"stateMutability":"view"},{"type":"function","name":"transferOwnership","inputs":[{"name":"newOwner","type":"address","internalType":"address"}],"outputs":[],"stateMutability":"nonpayable"},{"type":"function","name":"updateMaxAuctionDuration","inputs":[{"name":"newDuration","type":"uint256","internalType":"uint256"}],"outputs":[],"stateMutability":"nonpayable"},{"type":"function","name":"updatePlatformFee","inputs":[{"name":"newFee","type":"uint256","internalType":"uint256"}],"outputs":[],"stateMutability":"nonpayable"},{"type":"event","name":"AuctionCreated","inputs":[{"name":"listingId","type":"bytes32","indexed":true,"internalType":"bytes32"},{"name":"startTime","type":"uint256","indexed":false,"internalType":"uint256"},{"name":"endTime","type":"uint256","indexed":false,"internalType":"uint256"},{"name":"reservePrice","type":"uint256","indexed":false,"internalType":"uint256"}],"anonymous":false},{"type":"event","name":"AuctionExtended","inputs":[{"name":"listingId","type":"bytes32","indexed":true,"internalType":"bytes32"},{"name":"newEndTime","type":"uint256","indexed":false,"internalType":"uint256"},{"name":"extensionCount","type":"uint256","indexed":false,"internalType":"uint256"}],"anonymous":false},{"type":"event","name":"AuctionSettled","inputs":[{"name":"listingId","type":"bytes32","indexed":true,"internalType":"bytes32"},{"name":"winner","type":"address","indexed":true,"internalType":"address"},{"name":"finalPrice","type":"uint256","indexed":false,"internalType":"uint256"}],"anonymous":false},{"type":"event","name":"BidPlaced","inputs":[{"name":"listingId","type":"bytes32","indexed":true,"internalType":"bytes32"},{"name":"bidder","type":"address","indexed":true,"internalType":"address"},{"name":"amount","type":"uint256","indexed":false,"internalType":"uint256"},{"name":"timestamp","type":"uint256","indexed":false,"internalType":"uint256"}],"anonymous":false},{"type":"event","name":"EscrowReleased","inputs":[{"name":"listingId","type":"bytes32","indexed":true,"internalType":"bytes32"},{"name":"amount","type":"uint256","indexed":false,"internalType":"uint256"},{"name":"recipient","type":"address","indexed":false,"internalType":"address"}],"anonymous":false},{"type":"event","name":"FundsEscrowed","inputs":[{"name":"listingId","type":"bytes32","indexed":true,"internalType":"bytes32"},{"name":"amount","type":"uint256","indexed":false,"internalType":"uint256"},{"name":"seller","type":"address","indexed":false,"internalType":"address"},{"name":"buyer","type":"address","indexed":false,"internalType":"address"}],"anonymous":false},{"type":"event","name":"Listed","inputs":[{"name":"seller","type":"address","indexed":true,"internalType":"address"},{"name":"tokenContract","type":"address","indexed":true,"internalType":"address"},{"name":"tokenId","type":"uint256","indexed":true,"internalType":"uint256"},{"name":"price","type":"uint256","indexed":false,"internalType":"uint256"},{"name":"saleType","type":"uint8","indexed":false,"internalType":"enum TicketMarketplace.SaleType"}],"anonymous":false},{"type":"event","name":"ListingCancelled","inputs":[{"name":"listingId","type":"bytes32","indexed":true,"internalType":"bytes32"},{"name":"seller","type":"address","indexed":true,"internalType":"address"}],"anonymous":false},{"type":"event","name":"MarketplacePaused","inputs":[{"name":"paused","type":"bool","indexed":false,"internalType":"bool"}],"anonymous":false},{"type":"event","name":"OwnershipTransferred","inputs":[{"name":"previousOwner","type":"address","indexed":true,"internalType":"address"},{"name":"newOwner","type":"address","indexed":true,"internalType":"address"}],"anonymous":false},{"type":"event","name":"PriceValidated","inputs":[{"name":"listingId","type":"bytes32","indexed":true,"internalType":"bytes32"},{"name":"newPrice","type":"uint256","indexed":false,"internalType":"uint256"},{"name":"lastPrice","type":"uint256","indexed":false,"internalType":"uint256"},{"name":"increasePercentage","type":"uint256","indexed":false,"internalType":"uint256"}],"anonymous":false},{"type":"error","name":"Marketplace__AuctionActive","inputs":[]},{"type":"error","name":"Marketplace__AuctionEnded","inputs":[]},{"type":"error","name":"Marketplace__BidTooLow","inputs":[]},{"type":"error","name":"Marketplace__CannotBuyOwnItem","inputs":[]},{"type":"error","name":"Marketplace__ContractPaused","inputs":[]},{"type":"error","name":"Marketplace__EventNotCompleted","inputs":[]},{"type":"error","name":"Marketplace__FundsAlreadyReleased","inputs":[]},{"type":"error","name":"Marketplace__InsufficientContractBalance","inputs":[]},{"type":"error","name":"Marketplace__InsufficientFunds","inputs":[{"name":"required","type":"uint256","internalType":"uint256"},{"name":"provided","type":"uint256","internalType":"uint256"}]},{"type":"error","name":"Marketplace__InvalidAddress","inputs":[]},{"type":"error","name":"Marketplace__InvalidDuration","inputs":[]},{"type":"error","name":"Marketplace__InvalidFeePercentage","inputs":[]},{"type":"error","name":"Marketplace__InvalidTime","inputs":[]},{"type":"error","name":"Marketplace__ItemNotListed","inputs":[{"name":"tokenContract","type":"address","internalType":"address"},{"name":"tokenId","type":"uint256","internalType":"uint256"}]},{"type":"error","name":"Marketplace__MaxExtensionsReached","inputs":[]},{"type":"error","name":"Marketplace__NoActiveBids","inputs":[]},{"type":"error","name":"Marketplace__NotAuthorized","inputs":[]},{"type":"error","name":"Marketplace__PaymentFailed","inputs":[]},{"type":"error","name":"Marketplace__PriceIncreaseTooHigh","inputs":[]},{"type":"error","name":"Marketplace__ResaleCooldownActive","inputs":[]},{"type":"error","name":"OwnableInvalidOwner","inputs":[{"name":"owner","type":"address","internalType":"address"}]},{"type":"error","name":"OwnableUnauthorizedAccount","inputs":[{"name":"account","type":"address","internalType":"address"}]},{"type":"error","name":"ReentrancyGuardReentrantCall","inputs":[]}],"bytecode":{"object":"0x60c0604052346101a257604051601f61298738819003918201601f19168301916001600160401b03831184841017610142578084926080946040528339810103126101a25761004d816101a6565b9060208101516100646060604084015193016101a6565b9260015f55331561018f5760018054336001600160a01b0319821681179092556001600160a01b03167f8be0079c531659141344cd1fd0a4f28419497f9722a3daafe3b4186f6b6457e05f80a36001600160a01b03811615610180576001600160a01b03841615610180576103e8821161017157610e1083108015610165575b61015657608052604080519081016001600160401b038111828210176101425783916020916040528381520152600955600a5560a0526040516127cc90816101bb8239608051818181610a520152611bde015260a051816116810152f35b634e487b7160e01b5f52604160045260245ffd5b63b9259ad560e01b5f5260045ffd5b5062278d0083116100e4565b6313cff8a560e01b5f5260045ffd5b6330e93c7760e11b5f5260045ffd5b631e4fbdf760e01b5f525f60045260245ffd5b5f80fd5b51906001600160a01b03821682036101a25756fe60806040526004361015610011575f80fd5b5f3560e01c806301192f6e146119c057806316c38b3c1461195e5780631826dffe146118a35780631a082f2b1461187d5780631edbc5be146117f35780633442f0cf146117a75780633998a6811461178b5780633a40bd4b146117615780633fb35178146117445780635138b08c1461170c5780635c975abb146116ea5780635e483cca1461097457806362fe9212146116b057806369b6ba001461166c5780636c60401c14611642578063715018a6146115e7578063791bb4ef1461118757806379502c55146111635780637c76e3fe146111485780637e01e7c014610fef5780638da5cb5b14610fc7578063943ca3b914610f9d5780639585e82d14610ed05780639f37092a14610db1578063a0c13c4914610d4a578063aa0b598814610d11578063b09e052914610cf5578063b2ddee0614610bef578063b5e8b98d14610b9d578063b82cccf914610b71578063b94787fd14610a81578063bbc2848914610a3d578063c18b8db4146109b1578063c243873c14610979578063c2f50a7a14610974578063cad617f314610686578063d6e3df7914610669578063d98b9bb51461034d578063db2e21bc1461031c578063e1f1c4a714610300578063f1e1d691146102715763f2fde38b146101e7575f80fd5b3461026d57602036600319011261026d57610200611da2565b6102086120a6565b6001600160a01b0316801561025a57600180546001600160a01b0319811683179091556001600160a01b03167f8be0079c531659141344cd1fd0a4f28419497f9722a3daafe3b4186f6b6457e05f80a3005b631e4fbdf760e01b5f525f60045260245ffd5b5f80fd5b3461026d57604036600319011261026d5761029661028d611da2565b60243590611e48565b5f52600360205260e060405f208054906102f9600182015491600281015460018060a01b03600483015416600583015491600760ff60068601541694015495604051978852602088015260408701526060860152608085015260a0840190611db8565b60c0820152f35b3461026d575f36600319011261026d5760206040516127108152f35b3461026d575f36600319011261026d576103346120a6565b60015461034b9047906001600160a01b031661268d565b005b604036600319011261026d57610361611da2565b60243561036c612049565b60ff600b541661065a576103808183611e48565b91825f52600260205260405f209160048301549160ff8360081c161561063d57505060ff16600281101561060c5760010361062f5780546001600160a01b0316331461062057815f52600360205260405f2090600182019081544210156105fd5760ff600684015416600381101561060c576105fd57600583019081549061040c600386015483611de1565b9082156105f1575b5034106105e257600484018054335f81815260088801602052604090208054349182905584546001600160a01b03191690921790935591909355916001600160a01b0316821580610587575b8115158061057d575b1561054d5750610479925061268d565b604051348152426020820152837faaddb1daa68f2c899bf123296e7c6175854ccf8ca96e733fb37813a1fbe78ec860403393a38054916102586104bc4285611ff5565b108061053f575b6104ce575b60015f55005b610258830180931161052b57826007925501908154905f19821461052b577ff69feb9e4c7f793a0e057cd45d00201b9e2c9250ed13c8664347e05e18e340519260016040930180915582519182526020820152a2808080806104c8565b634e487b7160e01b5f52601160045260245ffd5b5060056007820154106104c3565b915033149081610574575b50610564575b50610479565b61056e903361268d565b8361055e565b90501585610558565b5033821415610469565b600986018054680100000000000000008110156105ce576105ad91600182018155612020565b81546001600160a01b0360039290921b91821b19163390911b179055610460565b634e487b7160e01b5f52604160045260245ffd5b6384a3b35360e01b5f5260045ffd5b60039150015486610414565b63f56df60960e01b5f5260045ffd5b634e487b7160e01b5f52602160045260245ffd5b635258897560e11b5f5260045ffd5b62879fe160e41b5f5260045ffd5b630f8081ef60e11b5f5260018060a01b031660045260245260445ffd5b63781f80fd60e01b5f5260045ffd5b3461026d575f36600319011261026d576020604051620151808152f35b3461026d57606036600319011261026d5761069f611da2565b6024359060443560ff600b541661065a57801561092f576106c08383612442565b6106ca8383611e48565b5f81815260056020526040902054801580610897576107d08202908282046107d014171561052b57612710610700910482611de1565b8311610888576107108184611ff5565b612710810290808204612710149015171561052b578161073f84935f5160206127775f395f51905f5293612002565b604080518781526020810193909352820152606090a25b61075f81612599565b6040519261076c84611dee565b338452602084019060018060a01b0381169485835260408101928784526060820186815260808301945f865260a08401926001845260c08501974289525f52600260205260405f209460018060a01b039060018060a01b03905116166001600160601b0360a01b86541617855560018060a01b03905116600185019060018060a01b03166001600160601b0360a01b82541617905551600284015551600383015560048201935194600286101561060c578454915161ffff1990921660ff9096169590951790151560081b61ff001617909255610854928692906005905191015533906125db565b6040519081525f60208201527fdb27655e679696839da027b6f73ec78a385985fecf092b60bde35c963729c1c860403392a4005b63649849c360e01b5f5260045ffd5b50506108a2836126c9565b801580156108b2575b5050610756565b6107d08202908282046107d014171561052b576127106108d3910482611de1565b8311610888576108e38184611ff5565b612710810290808204612710149015171561052b578161091284935f5160206127775f395f51905f5293612002565b604080518781526020810193909352820152606090a284806108ab565b60405162461bcd60e51b815260206004820152601c60248201527f5072696365206d7573742062652067726561746572207468616e2030000000006044820152606490fd5b611dc5565b3461026d57602036600319011261026d576001600160a01b0361099a611da2565b165f526007602052602060405f2054604051908152f35b3461026d57602036600319011261026d576004355f52600260205260405f2060018060a01b0381541660018060a01b036001830154166002830154926003810154600482015494600560ff871693015493604051958652602086015260408501526060840152600281101561060c5760e09360ff91608085015260081c16151560a083015260c0820152f35b3461026d575f36600319011261026d576040517f00000000000000000000000000000000000000000000000000000000000000006001600160a01b03168152602090f35b3461026d57602036600319011261026d57600435610a9d6120a6565b805f52600460205260405f20805480151580610b5f575b15610b295760028201805460ff60a01b198116600160a01b1782557f50ff135ec5b9c98cea85e59222572f738d66fc5668b790d682517c8c29208541939192610b05916001600160a01b031661268d565b549054604080519283526001600160a01b039091166020830152819081015b0390a2005b60405162461bcd60e51b815260206004820152600e60248201526d496e76616c696420657363726f7760901b6044820152606490fd5b5060ff600283015460a01c1615610ab4565b3461026d575f36600319011261026d576201518042045f526008602052602060405f2054604051908152f35b3461026d57604036600319011261026d576024356001600160a01b038116810361026d576004355f526003602052600860405f20019060018060a01b03165f52602052602060405f2054604051908152f35b3461026d57604036600319011261026d57610c08611da2565b602435610c13612049565b60ff600b541661065a57610c278183611e48565b91825f52600260205260405f20600481019283549260ff8460081c161561063d575050546001600160a01b03163303610ce65760ff16600281101561060c57600114610ca3575b805461ff001916905533907faf2daca9870585bf8789d28a6290e0b49491e1fb967adc141b2a68c5e386d9765f80a360015f55005b5f8281526003602052604090206004810154600691906001600160a01b0316610cd8575b01805460ff19166002179055610c6e565b610ce1846120cd565b610cc7565b634bea058d60e11b5f5260045ffd5b3461026d575f36600319011261026d5760206040516107d08152f35b3461026d57602036600319011261026d57600435610d2d6120a6565b6103e88111610d3b57600955005b6313cff8a560e01b5f5260045ffd5b3461026d57602036600319011261026d576004355f52600460205260a060405f2080549060ff600180851b036001830154169160036002820154910154926040519485526020850152600180861b0381166040850152841c16151560608301526080820152f35b604036600319011261026d57610dc5611da2565b602435610dd0612049565b60ff600b541661065a57610de48183611e48565b90815f52600260205260405f20600481019182549060ff8260081c1615610eac575060ff8116600281101561060c5761062f576003820194855492833410610e9557546001600160a01b0316331461062057610e5293610e4a9261ff0019169055612192565b903384612202565b8154815f52600560205260405f20555f5260066020524260405f205554803411610e7c5760015f55005b610e89610e8f9134611ff5565b3361268d565b806104c8565b83630e937ba160e21b5f526004523460245260445ffd5b630f8081ef60e11b5f9081526001600160a01b038716600452602491909152604490fd5b3461026d57602036600319011261026d575f6080604051610ef081611e0a565b82815282602082015282604082015282606082015201526004355f52600460205260a060405f20604051610f2381611e0a565b815491828252600180851b0360018201541690602083019182526002810154916080600360408601936001808a1b038616855260ff60608801968a1c161515865201549401938452604051948552600180871b039051166020850152600180861b0390511660408401525115156060830152516080820152f35b3461026d57602036600319011261026d576004355f526008602052602060405f2054604051908152f35b3461026d575f36600319011261026d576001546040516001600160a01b039091168152602090f35b3461026d57604036600319011261026d57611008611da2565b60243590611014612049565b61101e8282611e48565b91825f52600460205260405f2080549182156111245750600281019182549060ff8260a01c16611115576001600160a01b0382169433861415806110fe575b806110e9575b610ce6576110709061262b565b156110da5760ff60a01b19909116600160a01b1783557f50ff135ec5b9c98cea85e59222572f738d66fc5668b790d682517c8c29208541936110b2919061268d565b549054604080519283526001600160a01b039091166020830152819081015b0390a260015f55005b63ab58312960e01b5f5260045ffd5b506001546001600160a01b0316331415611063565b5060018401546001600160a01b031633141561105d565b63763a9dcd60e01b5f5260045ffd5b630f8081ef60e11b5f9081526001600160a01b038516600452602491909152604490fd5b3461026d575f36600319011261026d57602060405160058152f35b3461026d575f36600319011261026d576040600954600a5482519182526020820152f35b3461026d5760c036600319011261026d576111a0611da2565b60243590604435606435906084359060a4359160ff600b541661065a57811561159457821561153e578184106114ef57600a54811180156114e4575b61062f576111ea8686612442565b6111f48686611e48565b95865f52600560205260405f20549586158881155f1461144057506107d08802908882046107d014171561052b57612710611230910488611de1565b8411610888576112408785611ff5565b93612710850294808604612710149015171561052b57885f5160206127775f395f51905f528961127360019b8499612002565b604080518681526020810193909352820152606090a25b61129385612599565b60405161129f81611dee565b33815260208101898060a01b0384169384825260408301868152606084019085825260808501938d855260a086019d8e5260c086019a428c525f52600260205260405f209560018060a01b039060018060a01b03905116166001600160601b0360a01b87541617865560018060a01b03905116600186019060018060a01b03166001600160601b0360a01b82541617905551600285015551600384015560048301915192600284101561060c576005610b24996113a389957fbf37145626702f97e6e825a0f4c5c40fc8bac9bced6e28c87ee70c94c7f56bf59f6113ec9860ff8019845416911617825551151561ff00825491151560081b169061ff001916179055565b519101558b5f5260036020526113c060405f209742895542611de1565b9860018801998a558a600289015560038801556006870160ff1981541690555f600788015533906125db565b604051908152600160208201527fdb27655e679696839da027b6f73ec78a385985fecf092b60bde35c963729c1c860403392a454915492604051938493846040919493926060820195825260208201520152565b9497505061144d816126c9565b9687158015611461575b506001975061128a565b9094506107d08802908882046107d014171561052b57612710611485910488611de1565b8411610888576114958785611ff5565b93612710850294808604612710149015171561052b57885f5160206127775f395f51905f52896114c860019b8499612002565b604080518681526020810193909352820152606090a289611457565b50610e1081106111dc565b60405162461bcd60e51b815260206004820152602160248201527f52657365727665206d757374206265203e3d207374617274696e6720707269636044820152606560f81b6064820152608490fd5b60405162461bcd60e51b815260206004820152602860248201527f4d696e2062696420696e6372656d656e74206d75737420626520677265617465604482015267072207468616e20360c41b6064820152608490fd5b60405162461bcd60e51b815260206004820152602560248201527f5374617274696e67207072696365206d75737420626520677265617465722074604482015264068616e20360dc1b6064820152608490fd5b3461026d575f36600319011261026d576115ff6120a6565b600180546001600160a01b031981169091555f906001600160a01b03167f8be0079c531659141344cd1fd0a4f28419497f9722a3daafe3b4186f6b6457e08280a3005b3461026d57602036600319011261026d576004355f526005602052602060405f2054604051908152f35b3461026d575f36600319011261026d576040517f00000000000000000000000000000000000000000000000000000000000000006001600160a01b03168152602090f35b3461026d57602036600319011261026d576040600435805f526005602052815f2054905f526006602052815f205482519182526020820152f35b3461026d575f36600319011261026d57602060ff600b54166040519015158152f35b3461026d57604036600319011261026d57611725611da2565b61172d612049565b60ff600b541661065a576104c89060243590611e7c565b3461026d575f36600319011261026d57602060405162278d008152f35b3461026d57602036600319011261026d576004355f526006602052602060405f2054604051908152f35b3461026d575f36600319011261026d5760206040516103e88152f35b3461026d57602036600319011261026d576004356117c36120a6565b610e10811080156117e7575b6117d857600a55005b63b9259ad560e01b5f5260045ffd5b5062278d0081116117cf565b3461026d57602036600319011261026d576004355f52600360205261010060405f208054906118766001820154916002810154600382015460018060a01b0360048401541690600584015492600760ff60068701541695015496604051988952602089015260408801526060870152608086015260a085015260c0840190611db8565b60e0820152f35b3461026d57604036600319011261026d57602061189b61028d611da2565b604051908152f35b3461026d57602036600319011261026d576004355f526003602052600960405f2001604051806020835491828152019081935f5260205f20905f5b81811061193f57505050816118f4910382611e26565b604051918291602083019060208452518091526040830191905f5b81811061191d575050500390f35b82516001600160a01b031684528594506020938401939092019160010161190f565b82546001600160a01b03168452602090930192600192830192016118de565b3461026d57602036600319011261026d5760043580151580910361026d5760207f2d8cb32b79ced32c38fb4a61d8482c40627602feb2cc34b50d9b55eea376d88c916119a86120a6565b60ff19600b541660ff821617600b55604051908152a1005b3461026d57602036600319011261026d576004356119dc612049565b805f52600460205260405f2080548015611d8b5760028201805460ff8160a01c1661111557336001600160a01b038216141580611d74575b80611d5f575b610ce657600384015462015180810180911161052b5742106110da5760ff60a01b1916600160a01b1790555f838152600260205260409081902090519290611a6184611dee565b80546001600160a01b03908116855260018201541660208501908152600282015460408601908152600383015460608701526004830154919290916005919060ff90611ab281831660808b01611fe9565b60081c16151560a0880152015460c086015281516040516301ffc9a760e01b815263152a902d60e11b60048201525f93849392909190602090829060249082906001600160a01b03165afa908115611d54575f91611d25575b50611c72575b5050612710611b2260095486612093565b04611b2d8282611de1565b85808211611c3c575b90611b4091611ff5565b95854710611c2d57867f50ff135ec5b9c98cea85e59222572f738d66fc5668b790d682517c8c2920854197611c11575b505080611bd8575b5080151580611bc6575b611bad575b505060010154604080519283526001600160a01b039091166020830152819081016110d1565b611bbf916001600160a01b031661268d565b8480611b87565b506001600160a01b0382161515611b82565b611c0b907f00000000000000000000000000000000000000000000000000000000000000006001600160a01b031661268d565b86611b78565b9051611c2691906001600160a01b031661268d565b8780611b70565b634929789b60e11b5f5260045ffd5b80611c5683611c51611c5194611c5c97612093565b612002565b94612093565b90611b40611c6a8383611de1565b905085611b36565b5190516040805163152a902d60e11b81526004810192909252602482018790529091829060449082906001600160a01b03165afa90815f915f93611ce3575b5015611b11576001600160a01b038116151580611cd9575b15611b1157925090508680611b11565b5085821115611cc9565b915091506040813d604011611d1d575b81611d0060409383611e26565b8101031261026d576020611d138261207f565b9101519189611cb1565b3d9150611cf3565b611d47915060203d602011611d4d575b611d3f8183611e26565b810190612067565b89611b0b565b503d611d35565b6040513d5f823e3d90fd5b506001546001600160a01b0316331415611a1a565b5060018401546001600160a01b0316331415611a14565b630f8081ef60e11b5f525f6004525f60245260445ffd5b600435906001600160a01b038216820361026d57565b90600382101561060c5752565b3461026d575f36600319011261026d576020604051610e108152f35b9190820180921161052b57565b60e0810190811067ffffffffffffffff8211176105ce57604052565b60a0810190811067ffffffffffffffff8211176105ce57604052565b90601f8019910116810190811067ffffffffffffffff8211176105ce57604052565b906040519060208201926001600160601b03199060601b168352603482015260348152611e76605482611e26565b51902090565b611e868282611e48565b90815f52600260205260405f2092825f526003602052600460405f20940180549160ff8360081c16156111245750600685019160ff835416600381101561060c576105fd5760018601544210611fda5761ff0019169055805460ff191660011790556004830180549091906001600160a01b03161580159081611fc9575b611f8457507fa6d7caa325bd06c767ae7505be45dbb3ed3302a742cde6bc78d0ec0cf24a5d7091611f54611f39602093612192565b8254600597909701805490976001600160a01b031687612202565b8454845f526005835260405f2055835f52600682524260405f205560018060a01b039054169354604051908152a3565b9150505f9250611fbb575b7fa6d7caa325bd06c767ae7505be45dbb3ed3302a742cde6bc78d0ec0cf24a5d706020604051848152a3565b611fc4816120cd565b611f8f565b506005850154600286015411611f04565b632525148360e21b5f5260045ffd5b600282101561060c5752565b9190820391821161052b57565b811561200c570490565b634e487b7160e01b5f52601260045260245ffd5b8054821015612035575f5260205f2001905f90565b634e487b7160e01b5f52603260045260245ffd5b60025f54146120585760025f55565b633ee5aeb560e01b5f5260045ffd5b9081602091031261026d5751801515810361026d5790565b51906001600160a01b038216820361026d57565b8181029291811591840414171561052b57565b6001546001600160a01b031633036120ba57565b63118cdaa760e01b5f523360045260245ffd5b5f52600360205260405f20905f6008600984019301905b835481101561214d57806120fa60019286612020565b838060a01b0391549060031b1c16828060a01b0381165f528360205260405f205480612129575b5050016120e4565b61214691848060a01b0381165f52856020525f604081205561268d565b5f80612121565b50509050565b3d1561218d573d9067ffffffffffffffff82116105ce5760405191612182601f8201601f191660200184611e26565b82523d5f602084013e565b606090565b5f80916040516020810190633a0754d360e11b8252600481526121b6602482611e26565b51915afa6121c2612153565b90806121f6575b6121de575062278d00420180421161052b5790565b6020815191818082019384920101031261026d575190565b506020815110156121c9565b9192905f90835f52600260205260405f20936040519161222183611dee565b85546001600160a01b03908116845260018701541660208401908152600287015460408501908152600388015460608601526004880154909791949160059160ff9061227281831660808701611fe9565b60081c16151560a0840152015460c08201528351815197516001600160a01b03918216989093911690883b1561026d5760645f92836040519b8c9485936323b872dd60e01b8552600485015260018060a01b03169788602485015260448401525af1958615611d545761240197604097612405575b50815187517f56586321ab20ca900b063385de2ce8dff98a99c7269afe5f903e14c609c6e7869460609490939092600391906001600160a01b031661232b84611e0a565b8d845260208085019182528c85018781528886018d8152608087019485528b8e52600483528e8e209651875592516001870180546001600160a01b039283166001600160a01b03199091161790559051600287018054945160ff60a01b90151560a01b169183166001600160a81b0319909516949094171790925591519290930191909155915189518c815291169181019190915280880191909152a2516001600160a01b03168152600760205281812080546123e9908690611de1565b90556201518042048152600860205220918254611de1565b9055565b7f56586321ab20ca900b063385de2ce8dff98a99c7269afe5f903e14c609c6e78693919650916124375f606094611e26565b5f96919350916122e7565b6040516331a9108f60e11b8152600481018390526001600160a01b03919091169190602081602481865afa908115611d54575f9161255f575b50336001600160a01b0390911603610ce65760405163e985e9c560e01b8152336004820152306024820152602081604481865afa908115611d54575f91612540575b50156124c7575050565b60209060246040518094819363020604bf60e21b835260048301525afa908115611d54575f91612506575b50306001600160a01b0390911603610ce657565b90506020813d602011612538575b8161252160209383611e26565b8101031261026d576125329061207f565b5f6124f2565b3d9150612514565b612559915060203d602011611d4d57611d3f8183611e26565b5f6124bd565b90506020813d602011612591575b8161257a60209383611e26565b8101031261026d5761258b9061207f565b5f61247b565b3d915061256d565b5f52600660205260405f205480151590816125c5575b506125b657565b633d750f1160e21b5f5260045ffd5b9050610e10810180911161052b5742105f6125af565b60405163489a239760e01b602082019081526001600160a01b0390931660248201526044808201949094529283525f92839290839061261b606482611e26565b51925af150612628612153565b50565b5f8091604051602081019063e1a494d160e01b82526004815261264f602482611e26565b51915afa61265b612153565b9080612681575b61266b57505f90565b8060208061267e93518301019101612067565b90565b50602081511015612662565b81156126c5575f918291829182916001600160a01b03165af16126ae612153565b50156126b657565b63290a925760e11b5f5260045ffd5b5050565b5f806040516020810190631a05f1db60e21b8252600481526126ec602482611e26565b5190845afa6126f9612153565b908061276a575b61275157505f80916040516020810190638559dff360e01b825260048152612729602482611e26565b51915afa612735612153565b9080612745575b6121de57505f90565b5060208151101561273c565b805160208083019350908201919091031261026d575190565b5060208151101561270056fef7fc80ef8f15a391e5c9a71b1e274029f0046c12ade23516e9749f349ab6d072a26469706673582212200a480a56b3618326ea6b7033d5488dc5f4a8d9eb1d777092259459249240c58b64736f6c634300081e0033","linkReferences":{}},"methodIdentifiers":{"BASIS_POINTS()":"e1f1c4a7","ESCROW_RELEASE_DELAY()":"d6e3df79","I_USER_VERFIER_ADDRESS()":"69b6ba00","MAX_AUCTION_DURATION()":"3fb35178","MAX_AUCTION_EXTENSIONS()":"7c76e3fe","MAX_PLATFORM_FEE()":"3998a681","MIN_AUCTION_DURATION()":"c2f50a7a","PLATFORM_ADDRESS()":"bbc28489","PRICE_INCREASE_LIMIT()":"b09e0529","RESALE_COOLDOWN()":"5e483cca","auctions(bytes32)":"1edbc5be","buyItem(address,uint256)":"9f37092a","cancelListing(address,uint256)":"b2ddee06","config()":"79502c55","createAuction(address,uint256,uint256,uint256,uint256,uint256)":"791bb4ef","dailyVolume(uint256)":"943ca3b9","emergencyReleaseEscrow(bytes32)":"b94787fd","emergencyReleaseFunds(address,uint256)":"7e01e7c0","emergencyWithdraw()":"db2e21bc","escrowedFunds(bytes32)":"a0c13c49","getAuctionBidders(bytes32)":"1826dffe","getAuctionInfo(address,uint256)":"f1e1d691","getBidInfo(bytes32,address)":"b5e8b98d","getEscrowInfo(bytes32)":"9585e82d","getLastSaleInfo(bytes32)":"62fe9212","getListingId(address,uint256)":"1a082f2b","getTodaysVolume()":"b82cccf9","lastSalePrice(bytes32)":"6c60401c","lastSaleTime(bytes32)":"3a40bd4b","listItemFixedPrice(address,uint256,uint256)":"cad617f3","listings(bytes32)":"c18b8db4","owner()":"8da5cb5b","paused()":"5c975abb","placeBid(address,uint256)":"d98b9bb5","releaseEscrowedFunds(bytes32)":"01192f6e","renounceOwnership()":"715018a6","setPaused(bool)":"16c38b3c","settleAuction(address,uint256)":"5138b08c","tokenContractVolume(address)":"c243873c","transferOwnership(address)":"f2fde38b","updateMaxAuctionDuration(uint256)":"3442f0cf","updatePlatformFee(uint256)":"aa0b5988"},"id":34}